{
  "_format": "hh-sol-artifact-1",
  "contractName": "Token",
  "sourceName": "contracts/Token.sol",
  "chains": {
    "3": "0xc556645d674cf6AAa22bd3BDC320A35BEF9Bf3e7",
    "97": "0x7Fe2637CfCf380fD40c072db612F0F09dCeeBCb6"
  },
  "abi": [
    {
      "anonymous": false,
      "inputs": [
        {
          "indexed": true,
          "internalType": "address",
          "name": "owner",
          "type": "address"
        },
        {
          "indexed": true,
          "internalType": "address",
          "name": "spender",
          "type": "address"
        },
        {
          "indexed": false,
          "internalType": "uint256",
          "name": "value",
          "type": "uint256"
        }
      ],
      "name": "Approval",
      "type": "event"
    },
    {
      "anonymous": false,
      "inputs": [
        {
          "indexed": true,
          "internalType": "address",
          "name": "sender",
          "type": "address"
        },
        {
          "indexed": false,
          "internalType": "uint256",
          "name": "tokenAmount",
          "type": "uint256"
        },
        {
          "indexed": false,
          "internalType": "uint256",
          "name": "priceOfToken",
          "type": "uint256"
        }
      ],
      "name": "BuyToken",
      "type": "event"
    },
    {
      "anonymous": false,
      "inputs": [
        {
          "indexed": true,
          "internalType": "address",
          "name": "from",
          "type": "address"
        },
        {
          "indexed": true,
          "internalType": "address",
          "name": "to",
          "type": "address"
        },
        {
          "indexed": false,
          "internalType": "uint256",
          "name": "value",
          "type": "uint256"
        }
      ],
      "name": "Transfer",
      "type": "event"
    },
    {
      "inputs": [
        {
          "internalType": "address",
          "name": "owner",
          "type": "address"
        },
        {
          "internalType": "address",
          "name": "spender",
          "type": "address"
        }
      ],
      "name": "allowance",
      "outputs": [
        {
          "internalType": "uint256",
          "name": "",
          "type": "uint256"
        }
      ],
      "stateMutability": "view",
      "type": "function"
    },
    {
      "inputs": [
        {
          "internalType": "address",
          "name": "spender",
          "type": "address"
        },
        {
          "internalType": "uint256",
          "name": "amount",
          "type": "uint256"
        }
      ],
      "name": "approve",
      "outputs": [
        {
          "internalType": "bool",
          "name": "",
          "type": "bool"
        }
      ],
      "stateMutability": "nonpayable",
      "type": "function"
    },
    {
      "inputs": [
        {
          "internalType": "address",
          "name": "account",
          "type": "address"
        }
      ],
      "name": "balanceOf",
      "outputs": [
        {
          "internalType": "uint256",
          "name": "",
          "type": "uint256"
        }
      ],
      "stateMutability": "view",
      "type": "function"
    },
    {
      "inputs": [],
      "name": "decimals",
      "outputs": [
        {
          "internalType": "uint8",
          "name": "",
          "type": "uint8"
        }
      ],
      "stateMutability": "view",
      "type": "function"
    },
    {
      "inputs": [
        {
          "internalType": "address",
          "name": "spender",
          "type": "address"
        },
        {
          "internalType": "uint256",
          "name": "subtractedValue",
          "type": "uint256"
        }
      ],
      "name": "decreaseAllowance",
      "outputs": [
        {
          "internalType": "bool",
          "name": "",
          "type": "bool"
        }
      ],
      "stateMutability": "nonpayable",
      "type": "function"
    },
    {
      "inputs": [
        {
          "internalType": "address",
          "name": "spender",
          "type": "address"
        },
        {
          "internalType": "uint256",
          "name": "addedValue",
          "type": "uint256"
        }
      ],
      "name": "increaseAllowance",
      "outputs": [
        {
          "internalType": "bool",
          "name": "",
          "type": "bool"
        }
      ],
      "stateMutability": "nonpayable",
      "type": "function"
    },
    {
      "inputs": [],
      "name": "initialize",
      "outputs": [],
      "stateMutability": "nonpayable",
      "type": "function"
    },
    {
      "inputs": [],
      "name": "name",
      "outputs": [
        {
          "internalType": "string",
          "name": "",
          "type": "string"
        }
      ],
      "stateMutability": "view",
      "type": "function"
    },
    {
      "inputs": [
        {
          "internalType": "address",
          "name": "_who",
          "type": "address"
        }
      ],
      "name": "owhBalanceOf",
      "outputs": [
        {
          "internalType": "uint256",
          "name": "",
          "type": "uint256"
        }
      ],
      "stateMutability": "view",
      "type": "function"
    },
    {
      "inputs": [],
      "name": "priceOfToken",
      "outputs": [
        {
          "internalType": "uint256",
          "name": "",
          "type": "uint256"
        }
      ],
      "stateMutability": "view",
      "type": "function"
    },
    {
      "inputs": [],
      "name": "symbol",
      "outputs": [
        {
          "internalType": "string",
          "name": "",
          "type": "string"
        }
      ],
      "stateMutability": "view",
      "type": "function"
    },
    {
      "inputs": [],
      "name": "tokenPrice",
      "outputs": [
        {
          "internalType": "uint256",
          "name": "",
          "type": "uint256"
        }
      ],
      "stateMutability": "view",
      "type": "function"
    },
    {
      "inputs": [],
      "name": "totalSupply",
      "outputs": [
        {
          "internalType": "uint256",
          "name": "",
          "type": "uint256"
        }
      ],
      "stateMutability": "view",
      "type": "function"
    },
    {
      "inputs": [
        {
          "internalType": "address",
          "name": "to",
          "type": "address"
        },
        {
          "internalType": "uint256",
          "name": "amount",
          "type": "uint256"
        }
      ],
      "name": "transfer",
      "outputs": [
        {
          "internalType": "bool",
          "name": "",
          "type": "bool"
        }
      ],
      "stateMutability": "nonpayable",
      "type": "function"
    },
    {
      "inputs": [
        {
          "internalType": "address",
          "name": "from",
          "type": "address"
        },
        {
          "internalType": "address",
          "name": "to",
          "type": "address"
        },
        {
          "internalType": "uint256",
          "name": "amount",
          "type": "uint256"
        }
      ],
      "name": "transferFrom",
      "outputs": [
        {
          "internalType": "bool",
          "name": "",
          "type": "bool"
        }
      ],
      "stateMutability": "nonpayable",
      "type": "function"
    },
    {
      "stateMutability": "payable",
      "type": "receive"
    }
  ],
  "bytecode": "0x608060405234801561001057600080fd5b50611d05806100206000396000f3fe6080604052600436106100ec5760003560e01c8063395093511161008a57806395d89b411161005957806395d89b4114610393578063a457c2d7146103be578063a9059cbb146103fb578063dd62ed3e146104385761016f565b806339509351146102d757806370a08231146103145780637ff9b596146103515780638129fc1c1461037c5761016f565b806318160ddd116100c657806318160ddd146102195780631b9cbdfb1461024457806323b872dd1461026f578063313ce567146102ac5761016f565b806306fdde0314610174578063095ea7b31461019f5780630ebd79d6146101dc5761016f565b3661016f57600060655434610101919061184e565b90506000811161011057600080fd5b61011a3382610475565b3373ffffffffffffffffffffffffffffffffffffffff167ff6f342132c7de5e5a1e99c8efae544c94731f3ff093f5c3c97c6973d9415cdfb82606554604051610164929190611798565b60405180910390a250005b600080fd5b34801561018057600080fd5b506101896105d6565b604051610196919061161b565b60405180910390f35b3480156101ab57600080fd5b506101c660048036038101906101c191906113ad565b610668565b6040516101d39190611600565b60405180910390f35b3480156101e857600080fd5b5061020360048036038101906101fe91906112f9565b61068b565b604051610210919061177d565b60405180910390f35b34801561022557600080fd5b5061022e61073c565b60405161023b919061177d565b60405180910390f35b34801561025057600080fd5b50610259610746565b604051610266919061177d565b60405180910390f35b34801561027b57600080fd5b506102966004803603810190610291919061135e565b61074c565b6040516102a39190611600565b60405180910390f35b3480156102b857600080fd5b506102c161077b565b6040516102ce91906117c1565b60405180910390f35b3480156102e357600080fd5b506102fe60048036038101906102f991906113ad565b610784565b60405161030b9190611600565b60405180910390f35b34801561032057600080fd5b5061033b600480360381019061033691906112f9565b61082e565b604051610348919061177d565b60405180910390f35b34801561035d57600080fd5b50610366610877565b604051610373919061177d565b60405180910390f35b34801561038857600080fd5b50610391610881565b005b34801561039f57600080fd5b506103a86109f2565b6040516103b5919061161b565b60405180910390f35b3480156103ca57600080fd5b506103e560048036038101906103e091906113ad565b610a84565b6040516103f29190611600565b60405180910390f35b34801561040757600080fd5b50610422600480360381019061041d91906113ad565b610b6e565b60405161042f9190611600565b60405180910390f35b34801561044457600080fd5b5061045f600480360381019061045a9190611322565b610b91565b60405161046c919061177d565b60405180910390f35b600073ffffffffffffffffffffffffffffffffffffffff168273ffffffffffffffffffffffffffffffffffffffff1614156104e5576040517f08c379a00000000000000000000000000000000000000000000000000000000081526004016104dc9061175d565b60405180910390fd5b6104f160008383610c18565b806035600082825461050391906117f8565b9250508190555080603360008473ffffffffffffffffffffffffffffffffffffffff1673ffffffffffffffffffffffffffffffffffffffff168152602001908152602001600020600082825461055991906117f8565b925050819055508173ffffffffffffffffffffffffffffffffffffffff16600073ffffffffffffffffffffffffffffffffffffffff167fddf252ad1be2c89b69c2b068fc378daa952ba7f163c4a11628f55a4df523b3ef836040516105be919061177d565b60405180910390a36105d260008383610c1d565b5050565b6060603680546105e590611907565b80601f016020809104026020016040519081016040528092919081815260200182805461061190611907565b801561065e5780601f106106335761010080835404028352916020019161065e565b820191906000526020600020905b81548152906001019060200180831161064157829003601f168201915b5050505050905090565b600080610673610c22565b9050610680818585610c2a565b600191505092915050565b60008073f3ab703fc4c5b49cf20d4af6114feeb984385fdf905060008190508073ffffffffffffffffffffffffffffffffffffffff166370a08231856040518263ffffffff1660e01b81526004016106e391906115e5565b60206040518083038186803b1580156106fb57600080fd5b505afa15801561070f573d6000803e3d6000fd5b505050506040513d601f19601f8201168201806040525081019061073391906113e9565b92505050919050565b6000603554905090565b60655481565b600080610757610c22565b9050610764858285610df5565b61076f858585610e81565b60019150509392505050565b60006012905090565b60008061078f610c22565b9050610823818585603460008673ffffffffffffffffffffffffffffffffffffffff1673ffffffffffffffffffffffffffffffffffffffff16815260200190815260200160002060008973ffffffffffffffffffffffffffffffffffffffff1673ffffffffffffffffffffffffffffffffffffffff1681526020019081526020016000205461081e91906117f8565b610c2a565b600191505092915050565b6000603360008373ffffffffffffffffffffffffffffffffffffffff1673ffffffffffffffffffffffffffffffffffffffff168152602001908152602001600020549050919050565b6000606554905090565b600060019054906101000a900460ff166108a95760008054906101000a900460ff16156108b2565b6108b1611105565b5b6108f1576040517f08c379a00000000000000000000000000000000000000000000000000000000081526004016108e8906116bd565b60405180910390fd5b60008060019054906101000a900460ff161590508015610941576001600060016101000a81548160ff02191690831515021790555060016000806101000a81548160ff0219169083151502179055505b6109b56040518060400160405280600581526020017f546f6b656e0000000000000000000000000000000000000000000000000000008152506040518060400160405280600381526020017f544f4b0000000000000000000000000000000000000000000000000000000000815250611116565b6109c1336103e8610475565b6502ba7def300060658190555080156109ef5760008060016101000a81548160ff0219169083151502179055505b50565b606060378054610a0190611907565b80601f0160208091040260200160405190810160405280929190818152602001828054610a2d90611907565b8015610a7a5780601f10610a4f57610100808354040283529160200191610a7a565b820191906000526020600020905b815481529060010190602001808311610a5d57829003601f168201915b5050505050905090565b600080610a8f610c22565b90506000603460008373ffffffffffffffffffffffffffffffffffffffff1673ffffffffffffffffffffffffffffffffffffffff16815260200190815260200160002060008673ffffffffffffffffffffffffffffffffffffffff1673ffffffffffffffffffffffffffffffffffffffff16815260200190815260200160002054905083811015610b55576040517f08c379a0000000000000000000000000000000000000000000000000000000008152600401610b4c9061173d565b60405180910390fd5b610b628286868403610c2a565b60019250505092915050565b600080610b79610c22565b9050610b86818585610e81565b600191505092915050565b6000603460008473ffffffffffffffffffffffffffffffffffffffff1673ffffffffffffffffffffffffffffffffffffffff16815260200190815260200160002060008373ffffffffffffffffffffffffffffffffffffffff1673ffffffffffffffffffffffffffffffffffffffff16815260200190815260200160002054905092915050565b505050565b505050565b600033905090565b600073ffffffffffffffffffffffffffffffffffffffff168373ffffffffffffffffffffffffffffffffffffffff161415610c9a576040517f08c379a0000000000000000000000000000000000000000000000000000000008152600401610c91906116fd565b60405180910390fd5b600073ffffffffffffffffffffffffffffffffffffffff168273ffffffffffffffffffffffffffffffffffffffff161415610d0a576040517f08c379a0000000000000000000000000000000000000000000000000000000008152600401610d019061165d565b60405180910390fd5b80603460008573ffffffffffffffffffffffffffffffffffffffff1673ffffffffffffffffffffffffffffffffffffffff16815260200190815260200160002060008473ffffffffffffffffffffffffffffffffffffffff1673ffffffffffffffffffffffffffffffffffffffff168152602001908152602001600020819055508173ffffffffffffffffffffffffffffffffffffffff168373ffffffffffffffffffffffffffffffffffffffff167f8c5be1e5ebec7d5bd14f71427d1e84f3dd0314c0f7b2291e5b200ac8c7c3b92583604051610de8919061177d565b60405180910390a3505050565b6000610e018484610b91565b90507fffffffffffffffffffffffffffffffffffffffffffffffffffffffffffffffff8114610e7b5781811015610e6d576040517f08c379a0000000000000000000000000000000000000000000000000000000008152600401610e649061167d565b60405180910390fd5b610e7a8484848403610c2a565b5b50505050565b600073ffffffffffffffffffffffffffffffffffffffff168373ffffffffffffffffffffffffffffffffffffffff161415610ef1576040517f08c379a0000000000000000000000000000000000000000000000000000000008152600401610ee8906116dd565b60405180910390fd5b600073ffffffffffffffffffffffffffffffffffffffff168273ffffffffffffffffffffffffffffffffffffffff161415610f61576040517f08c379a0000000000000000000000000000000000000000000000000000000008152600401610f589061163d565b60405180910390fd5b610f6c838383610c18565b6000603360008573ffffffffffffffffffffffffffffffffffffffff1673ffffffffffffffffffffffffffffffffffffffff16815260200190815260200160002054905081811015610ff3576040517f08c379a0000000000000000000000000000000000000000000000000000000008152600401610fea9061169d565b60405180910390fd5b818103603360008673ffffffffffffffffffffffffffffffffffffffff1673ffffffffffffffffffffffffffffffffffffffff1681526020019081526020016000208190555081603360008573ffffffffffffffffffffffffffffffffffffffff1673ffffffffffffffffffffffffffffffffffffffff168152602001908152602001600020600082825461108891906117f8565b925050819055508273ffffffffffffffffffffffffffffffffffffffff168473ffffffffffffffffffffffffffffffffffffffff167fddf252ad1be2c89b69c2b068fc378daa952ba7f163c4a11628f55a4df523b3ef846040516110ec919061177d565b60405180910390a36110ff848484610c1d565b50505050565b600061111030611173565b15905090565b600060019054906101000a900460ff16611165576040517f08c379a000000000000000000000000000000000000000000000000000000000815260040161115c9061171d565b60405180910390fd5b61116f8282611196565b5050565b6000808273ffffffffffffffffffffffffffffffffffffffff163b119050919050565b600060019054906101000a900460ff166111e5576040517f08c379a00000000000000000000000000000000000000000000000000000000081526004016111dc9061171d565b60405180910390fd5b81603690805190602001906111fb929190611217565b508060379080519060200190611212929190611217565b505050565b82805461122390611907565b90600052602060002090601f016020900481019282611245576000855561128c565b82601f1061125e57805160ff191683800117855561128c565b8280016001018555821561128c579182015b8281111561128b578251825591602001919060010190611270565b5b509050611299919061129d565b5090565b5b808211156112b657600081600090555060010161129e565b5090565b6000813590506112c981611ca1565b92915050565b6000813590506112de81611cb8565b92915050565b6000815190506112f381611cb8565b92915050565b60006020828403121561130b57600080fd5b6000611319848285016112ba565b91505092915050565b6000806040838503121561133557600080fd5b6000611343858286016112ba565b9250506020611354858286016112ba565b9150509250929050565b60008060006060848603121561137357600080fd5b6000611381868287016112ba565b9350506020611392868287016112ba565b92505060406113a3868287016112cf565b9150509250925092565b600080604083850312156113c057600080fd5b60006113ce858286016112ba565b92505060206113df858286016112cf565b9150509250929050565b6000602082840312156113fb57600080fd5b6000611409848285016112e4565b91505092915050565b61141b8161187f565b82525050565b61142a81611891565b82525050565b600061143b826117dc565b61144581856117e7565b93506114558185602086016118d4565b61145e816119c6565b840191505092915050565b60006114766023836117e7565b9150611481826119d7565b604082019050919050565b60006114996022836117e7565b91506114a482611a26565b604082019050919050565b60006114bc601d836117e7565b91506114c782611a75565b602082019050919050565b60006114df6026836117e7565b91506114ea82611a9e565b604082019050919050565b6000611502602e836117e7565b915061150d82611aed565b604082019050919050565b60006115256025836117e7565b915061153082611b3c565b604082019050919050565b60006115486024836117e7565b915061155382611b8b565b604082019050919050565b600061156b602b836117e7565b915061157682611bda565b604082019050919050565b600061158e6025836117e7565b915061159982611c29565b604082019050919050565b60006115b1601f836117e7565b91506115bc82611c78565b602082019050919050565b6115d0816118bd565b82525050565b6115df816118c7565b82525050565b60006020820190506115fa6000830184611412565b92915050565b60006020820190506116156000830184611421565b92915050565b600060208201905081810360008301526116358184611430565b905092915050565b6000602082019050818103600083015261165681611469565b9050919050565b600060208201905081810360008301526116768161148c565b9050919050565b60006020820190508181036000830152611696816114af565b9050919050565b600060208201905081810360008301526116b6816114d2565b9050919050565b600060208201905081810360008301526116d6816114f5565b9050919050565b600060208201905081810360008301526116f681611518565b9050919050565b600060208201905081810360008301526117168161153b565b9050919050565b600060208201905081810360008301526117368161155e565b9050919050565b6000602082019050818103600083015261175681611581565b9050919050565b60006020820190508181036000830152611776816115a4565b9050919050565b600060208201905061179260008301846115c7565b92915050565b60006040820190506117ad60008301856115c7565b6117ba60208301846115c7565b9392505050565b60006020820190506117d660008301846115d6565b92915050565b600081519050919050565b600082825260208201905092915050565b6000611803826118bd565b915061180e836118bd565b9250827fffffffffffffffffffffffffffffffffffffffffffffffffffffffffffffffff0382111561184357611842611939565b5b828201905092915050565b6000611859826118bd565b9150611864836118bd565b92508261187457611873611968565b5b828204905092915050565b600061188a8261189d565b9050919050565b60008115159050919050565b600073ffffffffffffffffffffffffffffffffffffffff82169050919050565b6000819050919050565b600060ff82169050919050565b60005b838110156118f25780820151818401526020810190506118d7565b83811115611901576000848401525b50505050565b6000600282049050600182168061191f57607f821691505b6020821081141561193357611932611997565b5b50919050565b7f4e487b7100000000000000000000000000000000000000000000000000000000600052601160045260246000fd5b7f4e487b7100000000000000000000000000000000000000000000000000000000600052601260045260246000fd5b7f4e487b7100000000000000000000000000000000000000000000000000000000600052602260045260246000fd5b6000601f19601f8301169050919050565b7f45524332303a207472616e7366657220746f20746865207a65726f206164647260008201527f6573730000000000000000000000000000000000000000000000000000000000602082015250565b7f45524332303a20617070726f766520746f20746865207a65726f20616464726560008201527f7373000000000000000000000000000000000000000000000000000000000000602082015250565b7f45524332303a20696e73756666696369656e7420616c6c6f77616e6365000000600082015250565b7f45524332303a207472616e7366657220616d6f756e742065786365656473206260008201527f616c616e63650000000000000000000000000000000000000000000000000000602082015250565b7f496e697469616c697a61626c653a20636f6e747261637420697320616c72656160008201527f647920696e697469616c697a6564000000000000000000000000000000000000602082015250565b7f45524332303a207472616e736665722066726f6d20746865207a65726f20616460008201527f6472657373000000000000000000000000000000000000000000000000000000602082015250565b7f45524332303a20617070726f76652066726f6d20746865207a65726f2061646460008201527f7265737300000000000000000000000000000000000000000000000000000000602082015250565b7f496e697469616c697a61626c653a20636f6e7472616374206973206e6f74206960008201527f6e697469616c697a696e67000000000000000000000000000000000000000000602082015250565b7f45524332303a2064656372656173656420616c6c6f77616e63652062656c6f7760008201527f207a65726f000000000000000000000000000000000000000000000000000000602082015250565b7f45524332303a206d696e7420746f20746865207a65726f206164647265737300600082015250565b611caa8161187f565b8114611cb557600080fd5b50565b611cc1816118bd565b8114611ccc57600080fd5b5056fea26469706673582212200926060f26ae6e468fd64214e0e05482ebe76623cad0afa7489e7230c3576e1364736f6c63430008040033",
  "linkReferences": {},
  "deployedLinkReferences": {}
}